:400000000010002011000000490400004904000080B500AF00F01CFA80B584B000AF021CFB1D1A70204A3B1C0B3312781A701F4A3B1C0A3312781A700423013BFB6018E049
:400040001B4B1868391C0B31FA68131C5B009B18C3185B780B70164B1868391C0A31FA68131C5B009B18C3189B780B70FB68013BFB60FB68002B0ADB0D4B1968FA68131CF1
:400080005B009B185B5CFA1D12789A42D8D9094B3A1C0B3212781A60074B3A1C0A3212781A60BD4604B080BDCCF1FF0FCDF1FF0FCC0000201CFF0B4020FF0B4080B500AF4F
:4000C0001F4B1F4A12688021C9020A431A601820FFF7A2FF1B4B19221A60052000F0B0FA194B1A4A1278D2B21A60052000F0BCFA134B134A1168164A0A401A60154B164AA4
:400100001A60164B30221A60154B10221A60154B20221A60144B11221A60144B802212061A60134B134A1A60134B124A1A60134B104A1A60124B0F4A1A60BD4680BDC04640
:4001400000010B402CFF0B4028FF0B40E5F1FF0FFFFFFBFF04010B40060000802002024024020240280202402C02024008010B400000024017000080400002408000024080
:400180000400024080B582B000AF72B6FB1D00221A7023E0FB1D1A78131C5B009B185B00404A9B183B603B681A78597809020A43997809040A43DB781B0613431A1C3B686E
:4001C00019795B791B020B439BB2101C191C00F0BDF9FB1D1A78FB1D01321A70FB1D1B78012BD7D9304A314B101C191C00F0BEF92F4B304A1A60304BEE2212021A602F4BD5
:400200003E221A602E4B2F4A1A602F4B2F4A1A602F4B304A1A60304BD82212011A602F4B2F4A1A602F4B802292051A602E4B2F4A1A602F4B2A4A1A602E4B2F4A1A602F4B47
:40024000274A1A602E4B2F4A1A602F4B992212041A602E4B2E4A1A602E4B2F4A1A602F4B2E4A1278D2B202210A43D2B21A702C4B2B4A1278D2B23C218A43D2B214210A43E3
:40028000D2B21A70254B254A1278D2B216210A43D2B21A70FFF712FF00F0A8F9BD4602B080BDC046040C0000100C0000300C000000000140303333000C0001400000044051
:4002C00008000440B06D0700080104404892180008020440B19324000803044000500F400400990004500F4008500F400000C40610500F4014500F400000A80A20500F4027
:4003000024500F400000AAAA30500F40600105401FFF0F00A00105401CCC0C0000700F4001700F4010B5064C2378002B07D1054B002B02D0044800E000BF0123237010BD3A
:40034000E000002000000000FC0B000008B5084B002B03D00748084900E000BF07480368002B03D0064B002B00D0984708BDC04600000000FC0B0000E4000020C800002088
:400380000000000080B582B000AF00F0DBF900F0B3FB00F017FB00F065FA00F001FA021CBB1D1A8000F0D6FB021C3B1D1A8000F0E9FB031C002B39D1BB1D1A88F423FF333D
:4003C0009A4217D9BB1D1A881C4B9A4212D8BB1D1A881B4B9A4206D9012000F059F9012000F008F90CE0002000F052F9002000F001F905E0002000F0FDF8002000F048F9EE
:400400003B1D1A88F423FF339A420AD93B1D1A880A4B9A4205D83B1D1B88181C00F000FB0BE0084B181C00F0FBFA06E0032000F0E1F8002000F02CF9AFE7AEE7C409000042
:40044000A4060000DC05000080B500AFFEE7C04680B586B000AF224B7B61224B3B61204B7B6135E03B691B68FB603B695B68BB603B699B683B6000237B600CE0FB681A6845
:40048000BB681A60BB680433BB60FB680433FB607B6804337B607A683B689A42EED13B69DB683B6000237B6008E0BB6800221A60BB680433BB607B6804337B607A683B680A
:4004C0009A42F2D13B6910333B617B69013B7B617B69002BC6D100F063FBFFF753FFFEE7010000009C0D000080B582B000AF00237B600FE07B68032B04D8104B7A68920054
:40050000D35800E00E4B0F4A796889008B507B6801337B607B682F2BECD9FFF733FE0A4B00221A608023DB058022D205126801210A431A60BD4602B080BDC0460000000056
:400540004904000000000020C000002080B582B000AF786039607A683B68101C00211A1C00F044FBBD4602B080BDC04680B586B000AF7860396000233B6100237B612EE021
:400580007B699B007A68D3181B68BB603B1C0F33BA681A70BB68FF229343BB6017E03B695B003A68D3181B781A1CBB68D3183A69520039688A1852781A703B6901333B617D
:4005C0003B1C0F331A783B1C0F33013A1A703B1C0F331B78002BE2D17B6901337B617B69072BCDD9BD4606B080BDC04680B500AFBD4680BD80B584B000AF021CFB1D1A70C0
:400600000E4B1B68DAB23B1C0F3306218A431A70FB1D1B78DB18DAB206231340D9B23B1C0F333A1C0F3212780A431A70034B3A1C0F3212781A60BD4604B080BD0002044056
:400640000230800804D0C0460138FDD1C046C046C0467047EFF3108072B6704780F310887047C046C046C04680B582B000AF021CBB1D1A80BB1D1B88044A12785343181C2E
:40068000FFF7DEFFBD4602B080BDC046D800002080B584B000AF021CFB1D1A700E4B1B68DAB23B1C0F3340218A431A70FB1D1B789B01DAB240231340D9B23B1C0F333A1CE3
:4006C0000F3212780A431A70034B3A1C0F3212781A60BD4604B080BD0001044080B500AF094B802292041A60084B4D221A60022000F062F8064B181C00F044F8002000F0E3
:4007000033F8BD4680BDC0464001054064010540FFFF000090B583B000AFFC1DFFF79AFF031C2370064B064A126802210A431A60FB1D1B78181CFFF791FFBD4603B090BD2C
:400740000000054080B500AF064B1B78002B04D1FFF7C4FF034B01221A70FFF7DBFFBD4680BDC046FC00002080B582B000AF7860034B7A681204120C1A60BD4602B080BDC8
:400780004801054080B582B000AF7860034B7A681204120C1A60BD4602B080BD5401054080B500AF034B1B681B041B0C181CBD4680BDC0464C01054080B582B000AF78605E
:4007C000024B7A681A60BD4602B080BD7801054080B500AF104B8022D2041A600E4B0E4A12681A60002000F04FF80B4B0A4A12681A600A4B0C221A60012000F08DF8084BEF
:4008000031221A60074B181C00F04CF8064B181C00F056F8BD4680BDC0010540E4010540E8010540204E0000DC05000090B583B000AFFC1DFFF70EFF031C2370084B084AE7
:40084000126808210A431A60FB1D1B78181CFFF705FF0820182100F041F8BD4603B090BD0000054080B500AF064B1B78002B04D1FFF7AEFF034B01221A70FFF7D7FFBD462E
:4008800080BDC046FD00002080B582B000AF7860034B7A681204120C1A60BD4602B080BDC801054080B582B000AF7860034B7A681204120C1A60BD4602B080BDD401054034
:4008C00080B582B000AF7860034B7A681204120C1A60BD4602B080BDCC01054090B585B000AF786039603C1C0F34FFF7B3FE031C2370084B3A687968081C9040021C1A6038
:400900003B1C0F331B78181CFFF7A8FEBD4605B090BDC0460800054080B582B000AF7860024B7A681A60BD4602B080BDF801054080B500AF104B8022D2041A600E4B0E4ABA
:4009400012681A60002000F04FF80B4B0A4A12681A600A4B0C221A60012000F08DF8084B31221A60074B181C00F04CF8064B181C00F056F8BD4680BD00010540240105406E
:4009800028010540204E0000DC05000090B583B000AFFC1DFFF75EFE031C2370084B084A126801210A431A60FB1D1B78181CFFF755FE0120182100F041F8BD4603B090BD80
:4009C0000000054080B500AF064B1B78002B04D1FFF7AEFF034B01221A70FFF7D7FFBD4680BDC046FE00002080B582B000AF7860034B7A681204120C1A60BD4602B080BD5E
:400A00000801054080B582B000AF7860034B7A681204120C1A60BD4602B080BD1401054080B582B000AF7860034B7A681204120C1A60BD4602B080BD0C01054090B585B0C6
:400A400000AF786039603C1C0F34FFF703FE031C2370084B3A687968081C9040021C1A603B1C0F331B78181CFFF7F8FDBD4605B090BDC0460800054080B582B000AF78601F
:400A8000024B7A681A60BD4602B080BD3801054080B500AF094B802292041A60084B4D221A60022000F062F8064B181C00F044F8002000F033F8BD4680BDC0468001054093
:400AC000A4010540FFFF000090B583B000AFFC1DFFF7C0FD031C2370064B064A126804210A431A60FB1D1B78181CFFF7B7FDBD4603B090BD0000054080B500AF064B1B78C9
:400B0000002B04D1FFF7C4FF034B01221A70FFF7DBFFBD4680BDC046FF00002080B582B000AF7860034B7A681204120C1A60BD4602B080BD8801054080B582B000AF786052
:400B4000034B7A681204120C1A60BD4602B080BD9401054080B500AF034B1B681B041B0C181CBD4680BDC0468C01054080B582B000AF7860024B7A681A60BD4602B080BDFB
:400B8000B801054080B500AF044B1B68DAB201231340DBB2181CBD4680BDC0460402044070B50E4B0E4D0024ED1AAD101E1CAC4204D0A300F35898470134F8E700F0DCF8CB
:400BC000084B094D0024ED1AAD101E1CAC4204D0A300F35898470134F8E770BD840D0000840D0000840D00008C0D0000031C8218934202D019700133FAE770470000000059
:400C00000400000000300F40000400400F40000406310F402B320F4037330F400B400F4019410F400D420F4009430F4002600F40841089048C048E20E210E6020001020244
:400C400007060C010E04160117011D091F24210923122B082E062F303138350736073E403F11580459045F01800382048B048C018D038E028F04920296049A019B019F02E4
:400C8000AD01AF02B107B607BE40BF01D804D904DF0101810240030106400701080209200B200D04178019401F8021012408250229802D012E202F02301031803580370845
:400CC0003A403B203F0883048502879888028D808F8291089408950298109A609B019D40A120AD41AF01B240B520C099C22EC480CAB8CC5CCE4CE030E208E450E602EA02A3
:400D00000A08502057205C105D0263408C10C240D460D6A0D8400201051006800A800D0142804E0481108420872089018EC19208A420A720AD02AF40C0E0C230D040D22096
:400D4000E240E420E610EE5000200601078009200B200C800F10871088808D20C007C20FE6031D80858087109310AF80B010B601C601EE0302011101F8B5C046F8BC08BC25
:400D80009E4670474D030000E9040000F8B5C046F8BC08BC9E46704725030000B00D0000C800002018000000200000000000000000000000C0F1FF0F00366E01C05D00000F
:400DC000180000000000E02E0000000000000000000000000000000000000000000000000000000000000000000000000000000000000000000000000000000000000000CD
:400E000000000000000000000000000000000000000000000000000000000000000000000000000000000000000000000000000000000000000000000000000000000000B2
:400E40000000000000000000000000000000000000000000000000000000000000000000000000000000000000000000000000000000000000000000000000000000000072
:400E80000000000000000000000000000000000000000000000000000000000000000000000000000000000000000000000000000000000000000000000000000000000032
:400EC00000000000000000000000000000000000000000000000000000000000000000000000000000000000000000000000000000000000000000000000000000000000F2
:0200000490303A
:0200000089D1A4
:0200000490402A
:200000000000000000000000000000000000000000000000000000000000000000000000E0
:0200000490501A
:0C000000000204C81193110104CC9B64A1
:0200000490600A
:0100000001FE
:00000001FF