:4000000000100020110000009D0400009D04000080B500AF00F046FA80B584B000AF021CFB1D1A70204A3B1C0B3312781A701F4A3B1C0A3312781A700423013BFB6018E077
:400040001B4B1868391C0B31FA68131C5B009B18C3185B780B70164B1868391C0A31FA68131C5B009B18C3189B780B70FB68013BFB60FB68002B0ADB0D4B1968FA68131CF1
:400080005B009B185B5CFA1D12789A42D8D9094B3A1C0B3212781A60074B3A1C0A3212781A60BD4604B080BDCCF1FF0FCDF1FF0FCC0000201CFF0B4020FF0B4080B500AF4F
:4000C0001C4B1C4A12688021C9020A431A601820FFF7A2FF184B19221A60052000F050FC164B174A1278D2B21A60052000F05CFC104B104A1168134A0A401A60124B134A7E
:400100001A60134B30221A60124B10221A60124B20221A60114B802212061A60104B114A1A60114B0F4A1A60104B0E4A1A60BD4680BDC04600010B402CFF0B4028FF0B4063
:40014000E5F1FF0FFFFFFBFF04010B400600008020020240240202402802024008010B400000024017000080400002408000024080B582B000AF72B6FB1D00221A7023E01F
:40018000FB1D1A78131C5B009B185B004E4A9B183B603B681A78597809020A43997809040A43DB781B0613431A1C3B6819795B791B020B439BB2101C191C00F0F1F9FB1D3A
:4001C0001A78FB1D01321A70FB1D1B78012BD7D93E4A3F4B101C191C00F0F2F93D4B3E4A1A603E4B3E4A1A603E4BC02292031A603D4B3E4A1A603E4B24221A603D4B3E4A51
:400200001A603E4B09221A603D4B3E4A1A603E4B20221A603D4B3E4A1A603E4B01221A603D4B3E4A1A603E4B3E4A1A603E4B3F4A1A603F4B822212051A603E4B394A1A60B1
:400240003D4B3E4A1A603E4B8022D2031A603D4B344A1A603C4B3D4A1A603D4BC02212051A603C4B2F4A1A603B4BA02212051A603A4BC02292021A60394B3A4A1A603A4BA8
:400280003A4A1A603A4B3A4A1278D2B202210A43D2B21A70374B374A1278D2B23C218A43D2B214210A43D2B21A70314B304A1278D2B216210A43D2B21A70FFF7FFFE00F0E3
:4002C000BFF9BD4602B080BD280B0000340B0000540B000000000140000330000400014003300000080001400C00014003EE00000000044008000440B01327000001044051
:40030000080104404E9C18000002044008020440091227000003044008030440866D030000500F400400990004500F40000080A208500F4010500F4014500F400000280AD0
:4003400018500F4020500F4024500F4000008AA228500F4030500F4034500F4038500F406001054012220200A00105401444040000700F4001700F4010B5064C2378002B5E
:4003800007D1054B002B02D0044800E000BF0123237010BDE000002000000000200B000008B5084B002B03D00748084900E000BF07480368002B03D0064B002B00D098474E
:4003C00008BDC04600000000200B0000E4000020C80000200000000080B582B000AF00F067F900F029FB00F03FFA00F08FF9021CBB1D1A8000F04EFB021C3B1D1A80BB1D4F
:400400001A88F423FF339A4238D9BB1D1A88214B9A4233D8BB1D1A881F4B9A4223D93B1D1A88F423FF339A4213D93B1D1A88194B9A420ED83B1D1A88174B9A4209D90120F5
:4004400000F0A2F9012000F079F9012000F072FA13E0002000F06EFA002000F095F9032000F06CF909E0002000F08EF9002000F065F9002000F05EFA0AE009E0002000F037
:400480005DF9002000F080F9002000F053FAACE7ABE7C046C4090000A406000080B500AFFEE7C04680B586B000AF224B7B61224B3B61204B7B6135E03B691B68FB603B69A1
:4004C0005B68BB603B699B683B6000237B600CE0FB681A68BB681A60BB680433BB60FB680433FB607B6804337B607A683B689A42EED13B69DB683B6000237B6008E0BB6866
:4005000000221A60BB680433BB607B6804337B607A683B689A42F2D13B6910333B617B69013B7B617B69002BC6D100F0CBFAFFF753FFFEE701000000F00C000080B582B026
:4005400000AF00237B600FE07B68032B04D8104B7A689200D35800E00E4B0F4A796889008B507B6801337B607B682F2BECD9FFF7FFFD0A4B00221A608023DB058022D2054E
:40058000126801210A431A60BD4602B080BDC046000000009D04000000000020C000002080B582B000AF786039607A683B68101C00211A1C00F0ACFABD4602B080BDC04622
:4005C00080B586B000AF7860396000233B6100237B612EE07B699B007A68D3181B68BB603B1C0F33BA681A70BB68FF229343BB6017E03B695B003A68D3181B781A1CBB68D1
:40060000D3183A69520039688A1852781A703B6901333B613B1C0F331A783B1C0F33013A1A703B1C0F331B78002BE2D17B6901337B617B69072BCDD9BD4606B080BDC04690
:4006400080B500AFBD4680BD80B500AF094B802292041A60084B4D221A60022000F062F8064B181C00F044F8002000F033F8BD4680BDC0464001054064010540FFFF000064
:4006800090B583B000AFFC1D00F084F9031C2370064B064A126802210A431A60FB1D1B78181C00F07BF9BD4603B090BD0000054080B500AF064B1B78002B04D1FFF7C4FFCA
:4006C000034B01221A70FFF7DBFFBD4680BDC046FC00002080B582B000AF7860034B7A681204120C1A60BD4602B080BD4801054080B582B000AF7860034B7A681204120C2F
:400700001A60BD4602B080BD5401054080B500AF034B1B681B041B0C181CBD4680BDC0464C01054080B582B000AF7860024B7A681A60BD4602B080BD7801054080B584B0FC
:4007400000AF021CFB1D1A700E4B1B68DAB23B1C0F3330218A431A70FB1D1B781B01DAB230231340D9B23B1C0F333A1C0F3212780A431A70034B3A1C0F3212781A60BD4660
:4007800004B080BD0003044080B584B000AF021CFB1D1A700E4B1B68DAB23B1C0F3340218A431A70FB1D1B789B01DAB240231340D9B23B1C0F333A1C0F3212780A431A70CB
:4007C000034B3A1C0F3212781A60BD4604B080BD0001044080B500AF104B8022D2041A600E4B0E4A12681A60002000F04FF80B4B0A4A12681A600A4B0C221A60012000F0FE
:400800008DF8084B31221A60074B181C00F04CF8064B181C00F056F8BD4680BD000105402401054028010540204E0000DC05000090B583B000AFFC1D00F0ACF8031C237063
:40084000084B084A126801210A431A60FB1D1B78181C00F0A3F80120182100F041F8BD4603B090BD0000054080B500AF064B1B78002B04D1FFF7AEFF034B01221A70FFF7DF
:40088000D7FFBD4680BDC046FD00002080B582B000AF7860034B7A681204120C1A60BD4602B080BD0801054080B582B000AF7860034B7A681204120C1A60BD4602B080BD35
:4008C0001401054080B582B000AF7860034B7A681204120C1A60BD4602B080BD0C01054090B585B000AF786039603C1C0F3400F051F8031C2370084B3A687968081C9040A4
:40090000021C1A603B1C0F331B78181C00F046F8BD4605B090BDC0460800054080B582B000AF7860024B7A681A60BD4602B080BD3801054080B584B000AF021CFB1D1A705A
:400940000E4B1B68DAB23B1C0F3302218A431A70FB1D1B78DB18DAB202231340D9B23B1C0F333A1C0F3212780A431A70034B3A1C0F3212781A60BD4604B080BD000004401D
:400980000230800804D0C0460138FDD1C046C046C0467047EFF3108072B6704780F310887047C046C046C04680B582B000AF021CBB1D1A80BB1D1B88044A12785343181CEB
:4009C000FFF7DEFFBD4602B080BDC046D800002080B500AF094B802292041A60084B4D221A60022000F062F8064B181C00F044F8002000F033F8BD4680BDC04680010540AA
:400A0000A4010540FFFF000090B583B000AFFC1DFFF7C0FF031C2370064B064A126804210A431A60FB1D1B78181CFFF7B7FFBD4603B090BD0000054080B500AF064B1B7885
:400A4000002B04D1FFF7C4FF034B01221A70FFF7DBFFBD4680BDC046FE00002080B582B000AF7860034B7A681204120C1A60BD4602B080BD8801054080B582B000AF786014
:400A8000034B7A681204120C1A60BD4602B080BD9401054080B500AF034B1B681B041B0C181CBD4680BDC0468C01054080B582B000AF7860024B7A681A60BD4602B080BDBC
:400AC000B801054070B50E4B0E4D0024ED1AAD101E1CAC4204D0A300F35898470134F8E700F0F4F8084B094D0024ED1AAD101E1CAC4204D0A300F35898470134F8E770BDE3
:400B0000D80C0000D80C0000D80C0000E00C0000031C8218934202D019700133FAE77047000000000400000000300F40000400400F40000407310F4030320F403C330F4058
:400B40000D400F4018410F400B420F4016430F4002600F408280854087028F02E010E208E60400090212030106100702081B0A040E0417081A011F04210922082312251BEE
:400B800027042B102E02301C311C320737073E053F41580459045F0180018202850387048D018E048F0292019301940396049F02A202AF04B007B507BE01BF10D804D904E0
:400BC000DF0101800240058806480A400B200E041280160217021B011C6020042540274029802C802D102E0831403302340835803A483F098180820284108540860C871075
:400C0000888089108A408C0C8F4092409301944099089B02A280A306A540A701AB05AD08B301B440B640C0F9C24CC498CAE8CC59CECAE0C0E214E60AEA40051008400A1056
:400C40000D805B20630887208D80C080C2D0D480D840E2400140050808080D085004564080088508864089088C048D40A910AA10AC40B704C060C230D460E040E210E42051
:400C8000E880EC300310042007400A210F02660282108601C00DC20BD8010B800F401B0254026B50830287418B408C029B50A301B202B410C20CC608D604DA02DC04E40235
:400CC000E601E801EE02020111010000F8B5C046F8BC08BC9E467047A10300003D050000F8B5C046F8BC08BC9E46704779030000000D0000C8000020180000002000000004
:400D000000000000C0F1FF0F00366E01C05D0000180000000000E02E000000000000000000000000000000000000000000000000000000000000000000000000000000000C
:400D40000000000000000000000000000000000000000000000000000000000000000000000000000000000000000000000000000000000000000000000000000000000073
:400D80000000000000000000000000000000000000000000000000000000000000000000000000000000000000000000000000000000000000000000000000000000000033
:400DC00000000000000000000000000000000000000000000000000000000000000000000000000000000000000000000000000000000000000000000000000000000000F3
:400E000000000000000000000000000000000000000000000000000000000000000000000000000000000000000000000000000000000000000000000000000000000000B2
:0200000490303A
:0200000034CFFB
:0200000490402A
:200000000000000000000000000000000000000000000000000000000000000000000000E0
:0200000490501A
:0C000000000204C81193110104CC4662F8
:0200000490600A
:0100000001FE
:00000001FF